S01E000052414D436F646553706563696669635F52656C656173652E6D6F74C2
S113000001053B058305AD05DB05F105F30500009E
S1130010012012490860124840210160810C4160AE
S11300207047104B186099600F4803E00D4B18603F
S113003099600E48986192B2DA61FF20801C0C49E5
S113004008600120D8390A680240FCD088677047EC
S1130050044B186099600748ECE7000098031020EF
S11300604000102000001020009420002494200060
S1130070A00310200091100080B500F0FFF801BD2E
S1130080FEB5060015008F080324032008400190E4
S1130090330003223900280000F03CF9D9E080B590
S11300A0052069464870012300AA521C01216846B4
S11300B000F001F968460078C007F4D401BD0106D8
S11300C00202FF231B0413400B43010AFF22120206
S11300D00A401A43000E10437047F0B583B0040081
S11300E00D0C88B2C70B4004400C0105090D491ED4
S11300F08941C943C90F000B40180290002D08D054
S1130100802676020221200000F04FF8A4196D1E0B
S1130110F8D1002F20D006206946087001216846D6
S113012000F039F920062102FF2212040A4002439A
S1130130200AFF21090201401143200E08430190C7
S1130140522069460871042101A800F024F9FFF740
S1130150A6FF80200002241800250298002823D03E
S11301600627064668460770012100F014F92106A7
S11301702202FF20000410400843210AFF22120239
S11301800A400243200E1043019020206946087162
S1130190042101A800F0FFF8FFF781FF802040014F
S11301A024186D1CB542DDD364E07CB506000C0058
S11301B00620694608700121684600F0ECF830001A
S11301C0FFF77DFF0190002C05D0022C07D004D34B
S11301D0032C09D00CE0202002E0522000E0D820BB
S11301E069460871042503E0602069460871012509
S11301F0E9B201A800F0CFF8FFF751FF002076BD67
S113020030B583B00C00150006216A461170FFF763
S113021056FF02902D1F0422290001A800F00CF9BA
S11302200121684600F0B7F8042202A9280000F072
S113023003F902202870211D280000F0ACF8FFF714
S11302402EFF042201A9280000F0F6F8002003B0D4
S113025030BDB8003118019A002A0BD06A461470D8
S11302600B0C53700B0A9370D17004230199281856
S113027000F021F8002003B0F0BD000080B558481C
S1130280016820220A43026056480168FF22914314
S113029001220A430260E8380168012291430160A7
S11302A000214162C168090C090408220A43C260A2
S11302B0FFF7AEFE01BDF8B54B4C002525614B4E52
S11302C026604E1EB6B266600126A6601F0004D0EA
S11302D017782766521C5B1EFAD1266111290ED2AB
S11302E0A26A5207FCD5A26AD207FCD4002293B2B8
S11302F08B420CD2236E0370401C521CF7E707227A
S11303006265E6640A0001003948FFF78AFEE56485
S1130310A560F1BDF5B583B00C001F00354E20007B
S1130320310000F096F885B22000310000F091F819
S1130330684601802C4E002030612F483060601EDA
S113034080B27060072070650120F064B0603902EB
S1130350090A6A46127C12060A4332663061012D8C
S11303600DDB26480190234F039C3A00210001989D
S1130370FFF75CFEB80024186D1EF6D1039468469E
S1130380028803991D48FFF751FE0020F064FFE73F
S1130390B06005B0F0BD38B50A00134C00252561E6
S11303A0174921600121A160112A10D2002A04D02A
S11303B003782366401C521EFAD12161A06A4007CB
S11303C0FCD5A06AC007FCD4E564A56031BD082350
S11303D023650223E36421610549FFF739FEEDE754
S11303E018000040F00020400000204000030700F7
S11303F060002040FF0F000000031F00EC002040BD
S11304000001070070B4103A03D378C9103A78C0D9
S1130410FBD2530701D318C918C001D508C908C0B5
S1130420D20704D30B880380891C801C002A01D5C1
S11304300B78037070BC70478B0701D18307E1D040
S1130440124205D00B78491C0370401C521EF9D18E
S113045070470022030A8B420BD203098B4219D244
S113046043088B422ED2411A00D201465241104613
S11304707047FF2209023FD012068B4205D31212A5
S113048009028B4201D31212090203098B4219D3C8
S113049000E0090AC3098B4201D3CB01C01A5241BF
S11304A083098B4201D38B01C01A524143098B4209
S11304B001D34B01C01A524103098B4201D30B01F2
S11304C0C01A5241C3088B4201D3CB00C01A524117
S11304D083088B4201D38B00C01A524143088B42DC
S11304E001D34B00C01A5241884200D3401A5241F2
S11304F0CFD201461046704708B5C046C04608BD75
S113050010B554683948016820220A430260FFF795
S1130510B3FD002020800821A170E0700121217129
S11305206171A171E07120726072A17221616061D8
S11305308802A0618000E06110BDF3B581B0556808
S113054050691469860C8003800B0090002E0AD039
S11305508027FF022A0039002000FFF791FDE419EB
S1130560ED19761EF4D10098002804D02A00014623
S11305702000FFF785FD029800210160416003B06F
S1130580F0BDF2B555685069060A14690AD080278F
S11305907F002A0039002000FFF732FEE419ED192C
S11305A0761EF4D1009800210160F1BD38B51469BC
S11305B0556900200860002D09D000212000FFF7B4
S11305C0F4FD8020400124186D1E05D0F5E780213C
S11305D089032000FFF781FD31BD80B50348016820
S11305E020220A430260FFF747FD01BD18000040C6
S10705F07047704795
S9030000FC
